{
  "_format": "hh-sol-artifact-1",
  "contractName": "ChainTrackSupplyChain",
  "sourceName": "contracts/ChainTrackSupplyChain.sol",
  "abi": [
    {
      "inputs": [],
      "stateMutability": "nonpayable",
      "type": "constructor"
    },
    {
      "anonymous": false,
      "inputs": [
        {
          "indexed": true,
          "internalType": "string",
          "name": "batchCode",
          "type": "string"
        },
        {
          "indexed": false,
          "internalType": "string",
          "name": "productType",
          "type": "string"
        },
        {
          "indexed": true,
          "internalType": "address",
          "name": "manufacturer",
          "type": "address"
        },
        {
          "indexed": false,
          "internalType": "bytes32",
          "name": "merkleRoot",
          "type": "bytes32"
        },
        {
          "indexed": false,
          "internalType": "uint256",
          "name": "timestamp",
          "type": "uint256"
        }
      ],
      "name": "BatchCreated",
      "type": "event"
    },
    {
      "anonymous": false,
      "inputs": [
        {
          "indexed": true,
          "internalType": "string",
          "name": "batchCode",
          "type": "string"
        },
        {
          "indexed": false,
          "internalType": "bytes32",
          "name": "merkleRoot",
          "type": "bytes32"
        },
        {
          "indexed": false,
          "internalType": "bool",
          "name": "verified",
          "type": "bool"
        },
        {
          "indexed": false,
          "internalType": "uint256",
          "name": "timestamp",
          "type": "uint256"
        }
      ],
      "name": "BatchVerified",
      "type": "event"
    },
    {
      "anonymous": false,
      "inputs": [
        {
          "indexed": true,
          "internalType": "string",
          "name": "batchCode",
          "type": "string"
        },
        {
          "indexed": true,
          "internalType": "address",
          "name": "fromUser",
          "type": "address"
        },
        {
          "indexed": true,
          "internalType": "address",
          "name": "toUser",
          "type": "address"
        },
        {
          "indexed": false,
          "internalType": "string",
          "name": "location",
          "type": "string"
        },
        {
          "indexed": false,
          "internalType": "uint256",
          "name": "timestamp",
          "type": "uint256"
        }
      ],
      "name": "MovementRecorded",
      "type": "event"
    },
    {
      "anonymous": false,
      "inputs": [
        {
          "indexed": true,
          "internalType": "address",
          "name": "user",
          "type": "address"
        },
        {
          "indexed": false,
          "internalType": "string",
          "name": "role",
          "type": "string"
        },
        {
          "indexed": false,
          "internalType": "uint256",
          "name": "timestamp",
          "type": "uint256"
        }
      ],
      "name": "RoleAssigned",
      "type": "event"
    },
    {
      "inputs": [
        {
          "internalType": "string",
          "name": "",
          "type": "string"
        },
        {
          "internalType": "uint256",
          "name": "",
          "type": "uint256"
        }
      ],
      "name": "batchMovements",
      "outputs": [
        {
          "internalType": "string",
          "name": "batchCode",
          "type": "string"
        },
        {
          "internalType": "address",
          "name": "fromUser",
          "type": "address"
        },
        {
          "internalType": "address",
          "name": "toUser",
          "type": "address"
        },
        {
          "internalType": "string",
          "name": "location",
          "type": "string"
        },
        {
          "internalType": "uint256",
          "name": "timestamp",
          "type": "uint256"
        }
      ],
      "stateMutability": "view",
      "type": "function"
    },
    {
      "inputs": [
        {
          "internalType": "string",
          "name": "",
          "type": "string"
        }
      ],
      "name": "batches",
      "outputs": [
        {
          "internalType": "string",
          "name": "batchCode",
          "type": "string"
        },
        {
          "internalType": "string",
          "name": "productType",
          "type": "string"
        },
        {
          "internalType": "uint256",
          "name": "productionDate",
          "type": "uint256"
        },
        {
          "internalType": "uint256",
          "name": "expiryDate",
          "type": "uint256"
        },
        {
          "internalType": "address",
          "name": "manufacturer",
          "type": "address"
        },
        {
          "internalType": "bytes32",
          "name": "merkleRoot",
          "type": "bytes32"
        },
        {
          "internalType": "uint256",
          "name": "createdAt",
          "type": "uint256"
        },
        {
          "internalType": "bool",
          "name": "exists",
          "type": "bool"
        }
      ],
      "stateMutability": "view",
      "type": "function"
    },
    {
      "inputs": [
        {
          "internalType": "string",
          "name": "_batchCode",
          "type": "string"
        },
        {
          "internalType": "string",
          "name": "_productType",
          "type": "string"
        },
        {
          "internalType": "uint256",
          "name": "_productionDate",
          "type": "uint256"
        },
        {
          "internalType": "uint256",
          "name": "_expiryDate",
          "type": "uint256"
        },
        {
          "internalType": "bytes32",
          "name": "_merkleRoot",
          "type": "bytes32"
        }
      ],
      "name": "createBatch",
      "outputs": [],
      "stateMutability": "nonpayable",
      "type": "function"
    },
    {
      "inputs": [
        {
          "internalType": "address",
          "name": "",
          "type": "address"
        }
      ],
      "name": "distributors",
      "outputs": [
        {
          "internalType": "bool",
          "name": "",
          "type": "bool"
        }
      ],
      "stateMutability": "view",
      "type": "function"
    },
    {
      "inputs": [
        {
          "internalType": "string",
          "name": "_batchCode",
          "type": "string"
        }
      ],
      "name": "getBatch",
      "outputs": [
        {
          "components": [
            {
              "internalType": "string",
              "name": "batchCode",
              "type": "string"
            },
            {
              "internalType": "string",
              "name": "productType",
              "type": "string"
            },
            {
              "internalType": "uint256",
              "name": "productionDate",
              "type": "uint256"
            },
            {
              "internalType": "uint256",
              "name": "expiryDate",
              "type": "uint256"
            },
            {
              "internalType": "address",
              "name": "manufacturer",
              "type": "address"
            },
            {
              "internalType": "bytes32",
              "name": "merkleRoot",
              "type": "bytes32"
            },
            {
              "internalType": "uint256",
              "name": "createdAt",
              "type": "uint256"
            },
            {
              "internalType": "bool",
              "name": "exists",
              "type": "bool"
            }
          ],
          "internalType": "struct ChainTrackSupplyChain.Batch",
          "name": "",
          "type": "tuple"
        }
      ],
      "stateMutability": "view",
      "type": "function"
    },
    {
      "inputs": [
        {
          "internalType": "string",
          "name": "_batchCode",
          "type": "string"
        }
      ],
      "name": "getBatchMerkleRoot",
      "outputs": [
        {
          "internalType": "bytes32",
          "name": "",
          "type": "bytes32"
        }
      ],
      "stateMutability": "view",
      "type": "function"
    },
    {
      "inputs": [
        {
          "internalType": "string",
          "name": "_batchCode",
          "type": "string"
        }
      ],
      "name": "getMovements",
      "outputs": [
        {
          "components": [
            {
              "internalType": "string",
              "name": "batchCode",
              "type": "string"
            },
            {
              "internalType": "address",
              "name": "fromUser",
              "type": "address"
            },
            {
              "internalType": "address",
              "name": "toUser",
              "type": "address"
            },
            {
              "internalType": "string",
              "name": "location",
              "type": "string"
            },
            {
              "internalType": "uint256",
              "name": "timestamp",
              "type": "uint256"
            }
          ],
          "internalType": "struct ChainTrackSupplyChain.Movement[]",
          "name": "",
          "type": "tuple[]"
        }
      ],
      "stateMutability": "view",
      "type": "function"
    },
    {
      "inputs": [
        {
          "internalType": "address",
          "name": "_address",
          "type": "address"
        }
      ],
      "name": "isDistributor",
      "outputs": [
        {
          "internalType": "bool",
          "name": "",
          "type": "bool"
        }
      ],
      "stateMutability": "view",
      "type": "function"
    },
    {
      "inputs": [
        {
          "internalType": "address",
          "name": "_address",
          "type": "address"
        }
      ],
      "name": "isManufacturer",
      "outputs": [
        {
          "internalType": "bool",
          "name": "",
          "type": "bool"
        }
      ],
      "stateMutability": "view",
      "type": "function"
    },
    {
      "inputs": [
        {
          "internalType": "address",
          "name": "_address",
          "type": "address"
        }
      ],
      "name": "isRetailer",
      "outputs": [
        {
          "internalType": "bool",
          "name": "",
          "type": "bool"
        }
      ],
      "stateMutability": "view",
      "type": "function"
    },
    {
      "inputs": [
        {
          "internalType": "address",
          "name": "",
          "type": "address"
        }
      ],
      "name": "manufacturers",
      "outputs": [
        {
          "internalType": "bool",
          "name": "",
          "type": "bool"
        }
      ],
      "stateMutability": "view",
      "type": "function"
    },
    {
      "inputs": [
        {
          "internalType": "string",
          "name": "_batchCode",
          "type": "string"
        },
        {
          "internalType": "address",
          "name": "_fromUser",
          "type": "address"
        },
        {
          "internalType": "address",
          "name": "_toUser",
          "type": "address"
        },
        {
          "internalType": "string",
          "name": "_location",
          "type": "string"
        }
      ],
      "name": "recordMovement",
      "outputs": [],
      "stateMutability": "nonpayable",
      "type": "function"
    },
    {
      "inputs": [
        {
          "internalType": "address",
          "name": "_distributor",
          "type": "address"
        }
      ],
      "name": "registerDistributor",
      "outputs": [],
      "stateMutability": "nonpayable",
      "type": "function"
    },
    {
      "inputs": [
        {
          "internalType": "address",
          "name": "_manufacturer",
          "type": "address"
        }
      ],
      "name": "registerManufacturer",
      "outputs": [],
      "stateMutability": "nonpayable",
      "type": "function"
    },
    {
      "inputs": [
        {
          "internalType": "address",
          "name": "_retailer",
          "type": "address"
        }
      ],
      "name": "registerRetailer",
      "outputs": [],
      "stateMutability": "nonpayable",
      "type": "function"
    },
    {
      "inputs": [
        {
          "internalType": "address",
          "name": "",
          "type": "address"
        }
      ],
      "name": "retailers",
      "outputs": [
        {
          "internalType": "bool",
          "name": "",
          "type": "bool"
        }
      ],
      "stateMutability": "view",
      "type": "function"
    },
    {
      "inputs": [
        {
          "internalType": "string",
          "name": "_batchCode",
          "type": "string"
        },
        {
          "internalType": "bytes32",
          "name": "_leaf",
          "type": "bytes32"
        },
        {
          "internalType": "bytes32[]",
          "name": "_proof",
          "type": "bytes32[]"
        }
      ],
      "name": "verifyMerkleProof",
      "outputs": [
        {
          "internalType": "bool",
          "name": "",
          "type": "bool"
        }
      ],
      "stateMutability": "view",
      "type": "function"
    }
  ],
  "bytecode": "0x608060405234801561001057600080fd5b503360008181526002602052604090819020805460ff19166001179055517f25387e560930d89f4320f8cd13f87c328fa539e07b4b6c63f0f218a25c781a1b906100849042906040808252600c908201526b36b0b73ab330b1ba3ab932b960a11b6060820152602081019190915260800190565b60405180910390a2611cb98061009b6000396000f3fe608060405234801561001057600080fd5b506004361061010b5760003560e01c80639a268f35116100a2578063aee46d6611610071578063aee46d6614610297578063c0974162146102b8578063cc642784146102cb578063dfb91443146102ee578063f9ca42741461031257600080fd5b80639a268f351461023b5780639adce32b1461025e578063a683214314610271578063a83006da1461028457600080fd5b80636a3acfeb116100de5780636a3acfeb146101a55780636b5eb09c146101c55780637ef1446a146101e85780638f0c86fa1461020f57600080fd5b806317d4a4911461011057806331ab051814610151578063582ede2a146101665780635da09b8814610179575b600080fd5b61013c61011e3660046114a7565b6001600160a01b031660009081526002602052604090205460ff1690565b60405190151581526020015b60405180910390f35b61016461015f3660046114a7565b610332565b005b610164610174366004611580565b610463565b61013c6101873660046114a7565b6001600160a01b031660009081526004602052604090205460ff1690565b6101b86101b3366004611605565b61072f565b6040516101489190611692565b61013c6101d33660046114a7565b60026020526000908152604090205460ff1681565b6101fb6101f6366004611605565b610943565b604051610148989796959493929190611747565b61013c61021d3660046114a7565b6001600160a01b031660009081526003602052604090205460ff1690565b61013c6102493660046114a7565b60046020526000908152604090205460ff1681565b61016461026c3660046114a7565b610aae565b61013c61027f3660046117ad565b610bcd565b6101646102923660046114a7565b610cea565b6102aa6102a5366004611605565b610dfa565b604051908152602001610148565b6101646102c6366004611880565b610e69565b61013c6102d93660046114a7565b60036020526000908152604090205460ff1681565b6103016102fc3660046118ff565b6110ce565b604051610148959493929190611944565b610325610320366004611605565b611252565b6040516101489190611993565b3360009081526002602052604090205460ff1661036a5760405162461bcd60e51b815260040161036190611a28565b60405180910390fd5b6001600160a01b03811660009081526003602052604090205460ff16156103dd5760405162461bcd60e51b815260206004820152602160248201527f416c72656164792072656769737465726564206173206469737472696275746f6044820152603960f91b6064820152608401610361565b6001600160a01b03811660008181526003602052604090819020805460ff19166001179055517f25387e560930d89f4320f8cd13f87c328fa539e07b4b6c63f0f218a25c781a1b906104589042906040808252600b908201526a3234b9ba3934b13aba37b960a91b6060820152602081019190915260800190565b60405180910390a250565b836000816040516104749190611a72565b9081526040519081900360200190206007015460ff166104a65760405162461bcd60e51b815260040161036190611a8e565b6001600160a01b038416158015906104c657506001600160a01b03831615155b6105065760405162461bcd60e51b8152602060048201526011602482015270496e76616c69642061646472657373657360781b6044820152606401610361565b826001600160a01b0316846001600160a01b0316036105785760405162461bcd60e51b815260206004820152602860248201527f46726f6d20616e6420746f206164647265737365732063616e6e6f74206265206044820152677468652073616d6560c01b6064820152608401610361565b336001600160a01b03851614806105975750336001600160a01b038416145b6105f15760405162461bcd60e51b815260206004820152602560248201527f556e617574686f72697a65643a206d7573742062652066726f6d206f7220746f604482015264103ab9b2b960d91b6064820152608401610361565b6040805160a0810182528681526001600160a01b038087166020830152851681830152606081018490524260808201529051600190610631908890611a72565b9081526040516020918190038201902080546001810182556000918252919020825183926005029091019081906106689082611b3f565b5060208201516001820180546001600160a01b039283166001600160a01b0319918216179091556040840151600284018054919093169116179055606082015160038201906106b79082611b3f565b50608082015181600401555050836001600160a01b0316856001600160a01b0316876040516106e69190611a72565b60405180910390207f20a6162badd334426d166b0111df0ac24b41ec05604dd17c99e6ba48a92c9664864260405161071f929190611bff565b60405180910390a4505050505050565b6060816000816040516107429190611a72565b9081526040519081900360200190206007015460ff166107745760405162461bcd60e51b815260040161036190611a8e565b6001836040516107849190611a72565b9081526020016040518091039020805480602002602001604051908101604052809291908181526020016000905b8282101561093657838290600052602060002090600502016040518060a00160405290816000820180546107e590611abc565b80601f016020809104026020016040519081016040528092919081815260200182805461081190611abc565b801561085e5780601f106108335761010080835404028352916020019161085e565b820191906000526020600020905b81548152906001019060200180831161084157829003601f168201915b505050918352505060018201546001600160a01b039081166020830152600283015416604082015260038201805460609092019161089b90611abc565b80601f01602080910402602001604051908101604052809291908181526020018280546108c790611abc565b80156109145780601f106108e957610100808354040283529160200191610914565b820191906000526020600020905b8154815290600101906020018083116108f757829003601f168201915b50505050508152602001600482015481525050815260200190600101906107b2565b5050505091505b50919050565b805160208183018101805160008252928201919093012091528054819061096990611abc565b80601f016020809104026020016040519081016040528092919081815260200182805461099590611abc565b80156109e25780601f106109b7576101008083540402835291602001916109e2565b820191906000526020600020905b8154815290600101906020018083116109c557829003601f168201915b5050505050908060010180546109f790611abc565b80601f0160208091040260200160405190810160405280929190818152602001828054610a2390611abc565b8015610a705780601f10610a4557610100808354040283529160200191610a70565b820191906000526020600020905b815481529060010190602001808311610a5357829003601f168201915b50505060028401546003850154600486015460058701546006880154600790980154969793969295506001600160a01b039091169350919060ff1688565b3360009081526002602052604090205460ff16610add5760405162461bcd60e51b815260040161036190611a28565b6001600160a01b03811660009081526002602052604090205460ff1615610b515760405162461bcd60e51b815260206004820152602260248201527f416c72656164792072656769737465726564206173206d616e7566616374757260448201526132b960f11b6064820152608401610361565b6001600160a01b03811660008181526002602052604090819020805460ff19166001179055517f25387e560930d89f4320f8cd13f87c328fa539e07b4b6c63f0f218a25c781a1b906104589042906040808252600c908201526b36b0b73ab330b1ba3ab932b960a11b6060820152602081019190915260800190565b600083600081604051610be09190611a72565b9081526040519081900360200190206007015460ff16610c125760405162461bcd60e51b815260040161036190611a8e565b600084905060008087604051610c289190611a72565b908152602001604051809103902060050154905060005b8551811015610cdf576000868281518110610c5c57610c5c611c21565b6020026020010151905080841015610c9f576040805160208101869052908101829052606001604051602081830303815290604052805190602001209350610ccc565b60408051602081018390529081018590526060016040516020818303038152906040528051906020012093505b5080610cd781611c37565b915050610c3f565b501495945050505050565b3360009081526002602052604090205460ff16610d195760405162461bcd60e51b815260040161036190611a28565b6001600160a01b03811660009081526004602052604090205460ff1615610d825760405162461bcd60e51b815260206004820152601e60248201527f416c726561647920726567697374657265642061732072657461696c657200006044820152606401610361565b6001600160a01b03811660008181526004602052604090819020805460ff19166001179055517f25387e560930d89f4320f8cd13f87c328fa539e07b4b6c63f0f218a25c781a1b906104589042906040808252600890820152673932ba30b4b632b960c11b6060820152602081019190915260800190565b600081600081604051610e0d9190611a72565b9081526040519081900360200190206007015460ff16610e3f5760405162461bcd60e51b815260040161036190611a8e565b600083604051610e4f9190611a72565b908152602001604051809103902060050154915050919050565b3360009081526002602052604090205460ff16610e985760405162461bcd60e51b815260040161036190611a28565b600085604051610ea89190611a72565b9081526040519081900360200190206007015460ff1615610f025760405162461bcd60e51b8152602060048201526014602482015273426174636820616c72656164792065786973747360601b6044820152606401610361565b818310610f415760405162461bcd60e51b815260206004820152600d60248201526c496e76616c696420646174657360981b6044820152606401610361565b80610f845760405162461bcd60e51b8152602060048201526013602482015272125b9d985b1a590813595c9adb19481c9bdbdd606a1b6044820152606401610361565b604051806101000160405280868152602001858152602001848152602001838152602001336001600160a01b0316815260200182815260200142815260200160011515815250600086604051610fda9190611a72565b90815260405190819003602001902081518190610ff79082611b3f565b506020820151600182019061100c9082611b3f565b5060408281015160028301556060830151600383015560808301516004830180546001600160a01b0319166001600160a01b0390921691909117905560a0830151600583015560c0830151600683015560e0909201516007909101805460ff1916911515919091179055513390611084908790611a72565b60405180910390207f12b014907291ffe8647562ce2c5a0ab162896ee0b02f8e3b990343ae49fb54698684426040516110bf93929190611c5e565b60405180910390a35050505050565b815160208184018101805160018252928201918501919091209190528054829081106110f957600080fd5b90600052602060002090600502016000915091505080600001805461111d90611abc565b80601f016020809104026020016040519081016040528092919081815260200182805461114990611abc565b80156111965780601f1061116b57610100808354040283529160200191611196565b820191906000526020600020905b81548152906001019060200180831161117957829003601f168201915b5050506001840154600285015460038601805495966001600160a01b03938416969290931694509192506111c990611abc565b80601f01602080910402602001604051908101604052809291908181526020018280546111f590611abc565b80156112425780601f1061121757610100808354040283529160200191611242565b820191906000526020600020905b81548152906001019060200180831161122557829003601f168201915b5050505050908060040154905085565b6112a86040518061010001604052806060815260200160608152602001600081526020016000815260200160006001600160a01b0316815260200160008019168152602001600081526020016000151581525090565b816000816040516112b99190611a72565b9081526040519081900360200190206007015460ff166112eb5760405162461bcd60e51b815260040161036190611a8e565b6000836040516112fb9190611a72565b90815260200160405180910390206040518061010001604052908160008201805461132590611abc565b80601f016020809104026020016040519081016040528092919081815260200182805461135190611abc565b801561139e5780601f106113735761010080835404028352916020019161139e565b820191906000526020600020905b81548152906001019060200180831161138157829003601f168201915b505050505081526020016001820180546113b790611abc565b80601f01602080910402602001604051908101604052809291908181526020018280546113e390611abc565b80156114305780601f1061140557610100808354040283529160200191611430565b820191906000526020600020905b81548152906001019060200180831161141357829003601f168201915b5050509183525050600282015460208201526003820154604082015260048201546001600160a01b0316606082015260058201546080820152600682015460a082015260079091015460ff16151560c0909101529392505050565b80356001600160a01b03811681146114a257600080fd5b919050565b6000602082840312156114b957600080fd5b6114c28261148b565b9392505050565b634e487b7160e01b600052604160045260246000fd5b604051601f8201601f1916810167ffffffffffffffff81118282101715611508576115086114c9565b604052919050565b600082601f83011261152157600080fd5b813567ffffffffffffffff81111561153b5761153b6114c9565b61154e601f8201601f19166020016114df565b81815284602083860101111561156357600080fd5b816020850160208301376000918101602001919091529392505050565b6000806000806080858703121561159657600080fd5b843567ffffffffffffffff808211156115ae57600080fd5b6115ba88838901611510565b95506115c86020880161148b565b94506115d66040880161148b565b935060608701359150808211156115ec57600080fd5b506115f987828801611510565b91505092959194509250565b60006020828403121561161757600080fd5b813567ffffffffffffffff81111561162e57600080fd5b61163a84828501611510565b949350505050565b60005b8381101561165d578181015183820152602001611645565b50506000910152565b6000815180845261167e816020860160208601611642565b601f01601f19169290920160200192915050565b60006020808301818452808551808352604092508286019150828160051b87010184880160005b8381101561173957603f19898403018552815160a081518186526116df82870182611666565b838b01516001600160a01b03908116888d01528a850151168a880152606080850151888303828a015291935091506117178382611666565b60809485015197909401969096525050948701949250908601906001016116b9565b509098975050505050505050565b600061010080835261175b8184018c611666565b9050828103602084015261176f818b611666565b6040840199909952505060608101959095526001600160a01b0393909316608085015260a084019190915260c0830152151560e09091015292915050565b6000806000606084860312156117c257600080fd5b833567ffffffffffffffff808211156117da57600080fd5b6117e687838801611510565b94506020915081860135935060408601358181111561180457600080fd5b8601601f8101881361181557600080fd5b803582811115611827576118276114c9565b8060051b92506118388484016114df565b818152928201840192848101908a85111561185257600080fd5b928501925b8484101561187057833582529285019290850190611857565b8096505050505050509250925092565b600080600080600060a0868803121561189857600080fd5b853567ffffffffffffffff808211156118b057600080fd5b6118bc89838a01611510565b965060208801359150808211156118d257600080fd5b506118df88828901611510565b959895975050505060408401359360608101359360809091013592509050565b6000806040838503121561191257600080fd5b823567ffffffffffffffff81111561192957600080fd5b61193585828601611510565b95602094909401359450505050565b60a08152600061195760a0830188611666565b6001600160a01b0387811660208501528616604084015282810360608401526119808186611666565b9150508260808301529695505050505050565b60208152600082516101008060208501526119b2610120850183611666565b91506020850151601f198584030160408601526119cf8382611666565b925050604085015160608501526060850151608085015260018060a01b0360808601511660a085015260a085015160c085015260c085015160e085015260e0850151611a1e8286018215159052565b5090949350505050565b6020808252602a908201527f4f6e6c79206d616e756661637475726572732063616e20706572666f726d20746040820152693434b99030b1ba34b7b760b11b606082015260800190565b60008251611a84818460208701611642565b9190910192915050565b60208082526014908201527310985d18da08191bd95cc81b9bdd08195e1a5cdd60621b604082015260600190565b600181811c90821680611ad057607f821691505b60208210810361093d57634e487b7160e01b600052602260045260246000fd5b601f821115611b3a57600081815260208120601f850160051c81016020861015611b175750805b601f850160051c820191505b81811015611b3657828155600101611b23565b5050505b505050565b815167ffffffffffffffff811115611b5957611b596114c9565b611b6d81611b678454611abc565b84611af0565b602080601f831160018114611ba25760008415611b8a5750858301515b600019600386901b1c1916600185901b178555611b36565b600085815260208120601f198616915b82811015611bd157888601518255948401946001909101908401611bb2565b5085821015611bef5787850151600019600388901b60f8161c191681555b5050505050600190811b01905550565b604081526000611c126040830185611666565b90508260208301529392505050565b634e487b7160e01b600052603260045260246000fd5b600060018201611c5757634e487b7160e01b600052601160045260246000fd5b5060010190565b606081526000611c716060830186611666565b6020830194909452506040015291905056fea264697066735822122031a707ed1bc4dcc495092a39b7318134bc4d7fa159fe787996ce3fe73d5a06a864736f6c63430008130033",
  "linkReferences": {},
  "deployedLinkReferences": {}
}